{
  "_format": "hh-sol-artifact-1",
  "contractName": "ShadowSign",
  "sourceName": "contracts/ShadowSign.sol",
  "abi": [
    {
      "inputs": [],
      "name": "ZamaProtocolUnsupported",
      "type": "error"
    },
    {
      "anonymous": false,
      "inputs": [
        {
          "indexed": true,
          "internalType": "address",
          "name": "challenger",
          "type": "address"
        },
        {
          "indexed": false,
          "internalType": "uint8",
          "name": "roundIndex",
          "type": "uint8"
        },
        {
          "indexed": false,
          "internalType": "euint8",
          "name": "encryptedOutcome",
          "type": "bytes32"
        }
      ],
      "name": "RoundPlayed",
      "type": "event"
    },
    {
      "anonymous": false,
      "inputs": [
        {
          "indexed": true,
          "internalType": "address",
          "name": "challenger",
          "type": "address"
        }
      ],
      "name": "SeriesReset",
      "type": "event"
    },
    {
      "inputs": [],
      "name": "confidentialProtocolId",
      "outputs": [
        {
          "internalType": "uint256",
          "name": "",
          "type": "uint256"
        }
      ],
      "stateMutability": "view",
      "type": "function"
    },
    {
      "inputs": [],
      "name": "getLatestMoves",
      "outputs": [
        {
          "internalType": "euint8",
          "name": "challengerMove",
          "type": "bytes32"
        },
        {
          "internalType": "euint8",
          "name": "machineMove",
          "type": "bytes32"
        }
      ],
      "stateMutability": "view",
      "type": "function"
    },
    {
      "inputs": [],
      "name": "getRoundHistory",
      "outputs": [
        {
          "internalType": "euint8[3]",
          "name": "history",
          "type": "bytes32[3]"
        },
        {
          "internalType": "uint8",
          "name": "roundsPlayed",
          "type": "uint8"
        }
      ],
      "stateMutability": "view",
      "type": "function"
    },
    {
      "inputs": [],
      "name": "getScore",
      "outputs": [
        {
          "internalType": "euint8",
          "name": "playerWins",
          "type": "bytes32"
        },
        {
          "internalType": "euint8",
          "name": "machineWins",
          "type": "bytes32"
        }
      ],
      "stateMutability": "view",
      "type": "function"
    },
    {
      "inputs": [
        {
          "internalType": "externalEuint8",
          "name": "encryptedMove",
          "type": "bytes32"
        },
        {
          "internalType": "bytes",
          "name": "proof",
          "type": "bytes"
        }
      ],
      "name": "playRound",
      "outputs": [
        {
          "internalType": "euint8",
          "name": "outcome",
          "type": "bytes32"
        }
      ],
      "stateMutability": "nonpayable",
      "type": "function"
    },
    {
      "inputs": [],
      "name": "resetSeries",
      "outputs": [],
      "stateMutability": "nonpayable",
      "type": "function"
    }
  ],
  "bytecode": "0x6080604052346200013257620000146200016d565b5046600103620000f157620000286200016d565b506200003362000137565b6000815260006020820152600060408201525b60018060a01b036040818351169260018060a01b0319937f9e7b61f58c47dc699ac88507c4f5bb9f121c03808c5676a8078fe583e46497009085825416179055826020820151167f9e7b61f58c47dc699ac88507c4f5bb9f121c03808c5676a8078fe583e464970190858254161790550151167f9e7b61f58c47dc699ac88507c4f5bb9f121c03808c5676a8078fe583e464970291825416179055604051610fc79081620001f08239f35b4662aa36a7036200010c57620001066200018c565b62000046565b46617a69036200012057620001066200018c565b6040516373cac13b60e01b8152600490fd5b600080fd5b60405190606082016001600160401b038111838210176200015757604052565b634e487b7160e01b600052604160045260246000fd5b6200017762000137565b90600082526000602083015260006040830152565b620001966200016d565b50620001a162000137565b73f0ffdc93b7e186bc2f8cb3daa75d86d1930a433d81527392c920834ec8941d2c77d188936e1f7a6f49c127602082015273be0e383937d564d7ff0bc3b46c51f0bf8d5c311a60408201529056fe608080604052600436101561001357600080fd5b600090813560e01c9081638927b03014610b1b57508063afd8206714610aeb578063c91466f0146101f8578063d1f73b51146101c5578063ec2a020f146101245763eebc34d51461006357600080fd5b34610121578060031936011261012157338152806020526100f960408220610089610de1565b8155610093610de1565b60018201556100a0610de1565b60028201556100ad610de1565b60038201556100ba610de1565b60048201556100c7610de1565b60058201556100d4610de1565b60068201556100e1610de1565b600782015560088101805460ff191690553390610d64565b337f92efdc2197a7ee3dab5068b3a01bd8db5428e231916ef8c28e0ff5c71cb589ed8280a280f35b80fd5b5034610121578060031936011261012157606060405161014381610b66565b369037338152602081602052604082209160ff600884015416906040519360058591019082905b600382106101af5750505061017e84610b66565b60405192839491945b6003861061019a57608085856060820152f35b81806001928551815201930195019491610187565b825481526001928301929190910190850161016a565b50346101215780600319360112610121576040809133815280602052206004600382015491015482519182526020820152f35b50346101215760403660031901126101215760243567ffffffffffffffff91828211610121573660238301121561012157816004013592831161012157366024848401011161012157338152806020526040812092600360ff6008860154161015610aa65791816020601f19948060246040519561027d858a601f8601160188610b82565b82875201838601378301015260018060a01b03600080516020610f728339815191525416908260405194859263045fc19560e11b8452600435600485015233602485015260806044850152805190816084860152835b828110610a8b5750509160a4848093601f86858560209b998601015260026064850152011681010301925af1918215610a7e578192610a4a575b507f9e7b61f58c47dc699ac88507c4f5bb9f121c03808c5676a8078fe583e4649700546001600160a01b0316803b15610a4657604051630f8e573b60e21b8152600481018490523360248201529082908290604490829084905af18015610a3b57610a2c575b509081602060018060a01b03600080516020610f728339815191525416602460405180948193636baeb74560e11b8352600260048401525af18015610a215783906109ed575b6103c39150610cb9565b906000602060018060a01b03600080516020610f728339815191525416604460405180948193639cd07acb60e01b835260036004840152600260248401525af180156107c4576000906109b9575b61041c915082610bfb565b8281156109a9575b8315610997575b600080516020610f72833981519152546040516303056db360e31b8152600481019390935260248301919091526001600160f81b0319851660448301526020908290606490829088906001600160a01b03165af1801561098c578490610958575b6104969150610cb9565b9284546104a1610e31565b9085918615610948575b8015610936575b602090606460018060a01b03600080516020610f728339815191525416946000604051968794859363f77f3f1d60e01b8552600485015260248401528160448401525af19182156107c457600092610902575b5061050e610e31565b610516610de1565b928181156108f2575b156108e2575b83156108c9575b906064602092600060018060a01b03600080516020610f7283398151915254166040519788958694637702dcff60e01b86526004860152602485015260448401525af19081156107c457600091610893575b6105889250610bfb565b855560006001860154602060018060a01b03600080516020610f728339815191525416604460405180958193639cd07acb60e01b835260026004840152600260248401525af19182156107c45760009261085f575b50818692871561084f575b1561083d575b602090606460018060a01b03600080516020610f728339815191525416946000604051968794859363f77f3f1d60e01b8552600485015260248401528160448401525af19182156107c457600092610809575b5061064a610e31565b610652610de1565b928181156107f9575b156107e9575b83156107d0575b906064602092600060018060a01b03600080516020610f7283398151915254166040519788958694637702dcff60e01b86526004860152602485015260448401525af19081156107c457600091610789575b6106c49250610bfb565b60018601556106dd60ff60088701541660058701610ba4565b81549060031b9086821b91600019901b1916179055600885015490600160ff8316019060ff82116107755750926008926020969260ff809616908619161784840155856002840155600383015560048201556107393382610d64565b01541660405190815281838201527fef6d5d2b1890023e2aa4755b8bd427bf32c975fe8c56728d1b8d33d943365c3260403392a2604051908152f35b634e487b7160e01b81526011600452602490fd5b90506020823d6020116107bc575b816107a460209383610b82565b810103126107b7576106c49151906106ba565b600080fd5b3d9150610797565b6040513d6000823e3d90fd5b925060209060646107df610de1565b9491925050610668565b90506107f3610de1565b90610661565b9050610803610e87565b9061065b565b9091506020813d602011610835575b8161082560209383610b82565b810103126107b757519038610641565b3d9150610818565b506020610848610de1565b90506105ee565b9250610859610de1565b926105e8565b9091506020813d60201161088b575b8161087b60209383610b82565b810103126107b7575190386105dd565b3d915061086e565b90506020823d6020116108c1575b816108ae60209383610b82565b810103126107b75761058891519061057e565b3d91506108a1565b925060209060646108d8610de1565b949192505061052c565b90506108ec610de1565b90610525565b90506108fc610e87565b9061051f565b9091506020813d60201161092e575b8161091e60209383610b82565b810103126107b757519038610505565b3d9150610911565b506020610941610de1565b90506104b2565b9150610952610de1565b916104ab565b506020813d602011610984575b8161097260209383610b82565b810103126107b757610496905161048c565b3d9150610965565b6040513d86823e3d90fd5b5060206109a2610de1565b905061042b565b90506109b3610de1565b90610424565b506020813d6020116109e5575b816109d360209383610b82565b810103126107b75761041c9051610411565b3d91506109c6565b506020813d602011610a19575b81610a0760209383610b82565b810103126107b7576103c390516103b9565b3d91506109fa565b6040513d85823e3d90fd5b610a3590610b3c565b38610373565b6040513d84823e3d90fd5b5080fd5b9091506020813d602011610a76575b81610a6660209383610b82565b81010312610a465751903861030d565b3d9150610a59565b50604051903d90823e3d90fd5b602081830181015160a48b84010152899650889550016102d3565b60405162461bcd60e51b815260206004820152601b60248201527f536861646f775369676e3a207365726965732066696e697368656400000000006044820152606490fd5b50346101215780600319360112610121576040809133815280602052206001815491015482519182526020820152f35b905034610a465781600319360112610a4657602090610b38610bca565b8152f35b67ffffffffffffffff8111610b5057604052565b634e487b7160e01b600052604160045260246000fd5b6060810190811067ffffffffffffffff821117610b5057604052565b90601f8019910116810190811067ffffffffffffffff821117610b5057604052565b6003821015610bb4570190600090565b634e487b7160e01b600052603260045260246000fd5b46600103610bd757600190565b4662aa36a703610be75761271190565b617a694614610bf557600090565b60001990565b8015610cab575b8115610c9b575b60018060a01b03600080516020610f728339815191525416916040519163022f65e760e31b835260048301526024820152602081606481600080968160448401525af1918215610c8f578092610c5e57505090565b9091506020823d602011610c87575b81610c7a60209383610b82565b8101031261012157505190565b3d9150610c6d565b604051903d90823e3d90fd5b9050610ca5610de1565b90610c09565b50610cb4610de1565b610c02565b8015610d4f575b600080516020610f72833981519152546040516367a68c5560e11b8152600481019290925260036024830152600160f81b6044830152602090829060649082906000906001600160a01b03165af19081156107c457600091610d20575090565b90506020813d602011610d47575b81610d3b60209383610b82565b810103126107b7575190565b3d9150610d2e565b5060006020610d5c610de1565b915050610cc0565b610d6f828254610ed6565b600191610d80816001840154610ed6565b610d8e816002840154610ed6565b6003610d9e826003850154610ed6565b610dac826004850154610ed6565b60005b818110610dbd575050505050565b80610ddb84610dd0889460058901610ba4565b905490861b1c610ed6565b01610daf565b60018060a01b03600080516020610f728339815191525416604051639cd07acb60e01b815260208160448160008096816004840152600260248401525af1918215610c8f578092610c5e57505090565b600080516020610f7283398151915254604051639cd07acb60e01b8152600160048201526002602482015290602090829060449082906000906001600160a01b03165af19081156107c457600091610d20575090565b60018060a01b03600080516020610f728339815191525416604051639cd07acb60e01b8152602081604481600080968160048401528160248401525af1918215610c8f578092610c5e57505090565b908115610ef257610ef091610eeb3082610ef6565b610ef6565b565b5050565b7f9e7b61f58c47dc699ac88507c4f5bb9f121c03808c5676a8078fe583e4649700546001600160a01b031691823b156107b757604051635ca4b5b160e11b815260048101929092526001600160a01b03166024820152906000908290604490829084905af180156107c457610f685750565b610ef090610b3c56fe9e7b61f58c47dc699ac88507c4f5bb9f121c03808c5676a8078fe583e4649701a2646970667358221220077b38167bbe978aaad5e5af62890f49a94a109941309b48fd46c110752c392964736f6c63430008180033",
  "linkReferences": {},
  "deployedLinkReferences": {}
}