{
  "_format": "hh-sol-artifact-1",
  "contractName": "ShadowSign",
  "sourceName": "contracts/ShadowSign.sol",
  "abi": [
    {
      "inputs": [],
      "name": "ZamaProtocolUnsupported",
      "type": "error"
    },
    {
      "anonymous": false,
      "inputs": [
        {
          "indexed": true,
          "internalType": "address",
          "name": "challenger",
          "type": "address"
        },
        {
          "indexed": false,
          "internalType": "uint8",
          "name": "roundIndex",
          "type": "uint8"
        },
        {
          "indexed": false,
          "internalType": "euint8",
          "name": "encryptedOutcome",
          "type": "bytes32"
        }
      ],
      "name": "RoundPlayed",
      "type": "event"
    },
    {
      "anonymous": false,
      "inputs": [
        {
          "indexed": true,
          "internalType": "address",
          "name": "challenger",
          "type": "address"
        }
      ],
      "name": "SeriesReset",
      "type": "event"
    },
    {
      "inputs": [],
      "name": "confidentialProtocolId",
      "outputs": [
        {
          "internalType": "uint256",
          "name": "",
          "type": "uint256"
        }
      ],
      "stateMutability": "view",
      "type": "function"
    },
    {
      "inputs": [],
      "name": "getLatestMoves",
      "outputs": [
        {
          "internalType": "euint8",
          "name": "challengerMove",
          "type": "bytes32"
        },
        {
          "internalType": "euint8",
          "name": "machineMove",
          "type": "bytes32"
        }
      ],
      "stateMutability": "view",
      "type": "function"
    },
    {
      "inputs": [],
      "name": "getRoundHistory",
      "outputs": [
        {
          "internalType": "euint8[]",
          "name": "history",
          "type": "bytes32[]"
        }
      ],
      "stateMutability": "view",
      "type": "function"
    },
    {
      "inputs": [],
      "name": "getScore",
      "outputs": [
        {
          "internalType": "euint8",
          "name": "playerWins",
          "type": "bytes32"
        },
        {
          "internalType": "euint8",
          "name": "machineWins",
          "type": "bytes32"
        }
      ],
      "stateMutability": "view",
      "type": "function"
    },
    {
      "inputs": [
        {
          "internalType": "externalEuint8",
          "name": "encryptedMove",
          "type": "bytes32"
        },
        {
          "internalType": "bytes",
          "name": "proof",
          "type": "bytes"
        }
      ],
      "name": "playRound",
      "outputs": [
        {
          "internalType": "euint8",
          "name": "outcome",
          "type": "bytes32"
        }
      ],
      "stateMutability": "nonpayable",
      "type": "function"
    },
    {
      "inputs": [],
      "name": "resetSeries",
      "outputs": [],
      "stateMutability": "nonpayable",
      "type": "function"
    }
  ],
  "bytecode": "0x60406080815234620001e5576200001562000220565b5046600103620000f6576200002962000220565b5062000034620001ea565b60008152600060208201526000828201525b80517f9e7b61f58c47dc699ac88507c4f5bb9f121c03808c5676a8078fe583e464970080546001600160a01b03199081166001600160a01b039384161790915560208301517f9e7b61f58c47dc699ac88507c4f5bb9f121c03808c5676a8078fe583e464970180548316918416919091179055918301517f9e7b61f58c47dc699ac88507c4f5bb9f121c03808c5676a8078fe583e46497028054909316911617905551610f669081620002408239f35b4662aa36a70362000166576200010b62000220565b5062000116620001ea565b73f0ffdc93b7e186bc2f8cb3daa75d86d1930a433d81527392c920834ec8941d2c77d188936e1f7a6f49c127602082015273be0e383937d564d7ff0bc3b46c51f0bf8d5c311a8282015262000046565b46617a6903620001d5576200017a62000220565b5062000185620001ea565b7350157cffd6bbfa2dece204a89ec419c23ef5755d815273e3a9105a3a932253a70f126eb1e3b589c643dd24602082015273be0e383937d564d7ff0bc3b46c51f0bf8d5c311a8282015262000046565b516373cac13b60e01b8152600490fd5b600080fd5b60405190606082016001600160401b038111838210176200020a57604052565b634e487b7160e01b600052604160045260246000fd5b6200022a620001ea565b9060008252600060208301526000604083015256fe608080604052600436101561001357600080fd5b600090813560e01c9081638927b03014610ab657508063afd8206714610a86578063c91466f0146101f6578063d1f73b51146101c3578063ec2a020f146101235763eebc34d51461006357600080fd5b346101205780600319360112610120573381528060205260408120610086610d80565b8155610090610d80565b60019060018301556100a0610d80565b60028301556100ad610d80565b60038301556100ba610d80565b60048301556005820180549084815581610102575b846100da3386610cef565b337f92efdc2197a7ee3dab5068b3a01bd8db5428e231916ef8c28e0ff5c71cb589ed8280a280f35b845260208420908101905b818110156100cf5760008155820161010d565b80fd5b503461012057806003193601126101205733815260208181526005604083200160405192838383549182815201908193835284832090835b8181106101af5750505084610171910385610b05565b60405193838594850191818652518092526040850193925b82811061019857505050500390f35b835185528695509381019392810192600101610189565b82548452928601926001928301920161015b565b50346101205780600319360112610120576040809133815280602052206004600382015491015482519182526020820152f35b50346101205760403660031901126101205760243567ffffffffffffffff808211610a545736602383011215610a54578160040135908111610a54573660248284010111610a545790338352826020526040832090836020601f19948060246040519561026a858a601f8601160188610b05565b82875201838601378301015260018060a01b03600080516020610f118339815191525416908460405194859263045fc19560e11b8452600435600485015233602485015260806044850152805190816084860152835b828110610a6b5750509160a4848093601f86858560209b998601015260026064850152011681010301925af1918215610a60578392610a28575b507f9e7b61f58c47dc699ac88507c4f5bb9f121c03808c5676a8078fe583e4649700546001600160a01b0316803b15610a2457604051630f8e573b60e21b8152600481018490523360248201529084908290604490829084905af18015610a0657610a11575b50600080516020610f1183398151915254604051636baeb74560e11b815260026004820152906020908290602490829088906001600160a01b03165af18015610a065784906109d2575b6103b49150610c44565b600080516020610f1183398151915254604051639cd07acb60e01b8152600360048201526002602482015290602090829060449082906000906001600160a01b03165af180156107a95760009061099e575b610411915084610b86565b81811561098e575b821561097c575b600080516020610f11833981519152546040516303056db360e31b8152600481019390935260248301919091526001600160f81b0319861660448301526020908290606490829089906001600160a01b03165af1801561097157859061093d575b61048b9150610c44565b928254610496610dd0565b908591861561092d575b801561091b575b602090606460018060a01b03600080516020610f118339815191525416946000604051968794859363f77f3f1d60e01b8552600485015260248401528160448401525af19182156107a9576000926108e7575b50610503610dd0565b61050b610d80565b928181156108d7575b156108c7575b83156108ae575b906064602092600060018060a01b03600080516020610f1183398151915254166040519788958694637702dcff60e01b86526004860152602485015260448401525af19081156107a957600091610878575b61057d9250610b86565b835560006001840154602060018060a01b03600080516020610f118339815191525416604460405180958193639cd07acb60e01b835260026004840152600260248401525af19182156107a957600092610844575b508186928715610834575b15610822575b602090606460018060a01b03600080516020610f118339815191525416946000604051968794859363f77f3f1d60e01b8552600485015260248401528160448401525af19182156107a9576000926107ee575b5061063f610dd0565b610647610d80565b928181156107de575b156107ce575b83156107b5575b906064602092600060018060a01b03600080516020610f1183398151915254166040519788958694637702dcff60e01b86526004860152602485015260448401525af19081156107a95760009161076e575b6106b99250610b86565b600184015560058301948554906801000000000000000082101561075a5750926020959261071f926106f386600160ff9801875586610b27565b81549060031b9089821b91600019901b1916179055866002840155600383015560048201553390610cef565b541660405190815281838201527fef6d5d2b1890023e2aa4755b8bd427bf32c975fe8c56728d1b8d33d943365c3260403392a2604051908152f35b634e487b7160e01b81526041600452602490fd5b90506020823d6020116107a1575b8161078960209383610b05565b8101031261079c576106b99151906106af565b600080fd5b3d915061077c565b6040513d6000823e3d90fd5b925060209060646107c4610d80565b949192505061065d565b90506107d8610d80565b90610656565b90506107e8610e26565b90610650565b9091506020813d60201161081a575b8161080a60209383610b05565b8101031261079c57519038610636565b3d91506107fd565b50602061082d610d80565b90506105e3565b925061083e610d80565b926105dd565b9091506020813d602011610870575b8161086060209383610b05565b8101031261079c575190386105d2565b3d9150610853565b90506020823d6020116108a6575b8161089360209383610b05565b8101031261079c5761057d915190610573565b3d9150610886565b925060209060646108bd610d80565b9491925050610521565b90506108d1610d80565b9061051a565b90506108e1610e26565b90610514565b9091506020813d602011610913575b8161090360209383610b05565b8101031261079c575190386104fa565b3d91506108f6565b506020610926610d80565b90506104a7565b9150610937610d80565b916104a0565b506020813d602011610969575b8161095760209383610b05565b8101031261079c5761048b9051610481565b3d915061094a565b6040513d87823e3d90fd5b506020610987610d80565b9050610420565b9050610998610d80565b90610419565b506020813d6020116109ca575b816109b860209383610b05565b8101031261079c576104119051610406565b3d91506109ab565b506020813d6020116109fe575b816109ec60209383610b05565b8101031261079c576103b490516103aa565b3d91506109df565b6040513d86823e3d90fd5b610a1d90939193610adb565b9138610360565b8380fd5b9091506020813d602011610a58575b81610a4460209383610b05565b81010312610a54575190386102fa565b8280fd5b3d9150610a37565b6040513d85823e3d90fd5b602081830181015160a48b840101528996508a9550016102c0565b50346101205780600319360112610120576040809133815280602052206001815491015482519182526020820152f35b905034610ad75781600319360112610ad757602090610ad3610b55565b8152f35b5080fd5b67ffffffffffffffff8111610aef57604052565b634e487b7160e01b600052604160045260246000fd5b90601f8019910116810190811067ffffffffffffffff821117610aef57604052565b8054821015610b3f5760005260206000200190600090565b634e487b7160e01b600052603260045260246000fd5b46600103610b6257600190565b4662aa36a703610b725761271190565b617a694614610b8057600090565b60001990565b8015610c36575b8115610c26575b60018060a01b03600080516020610f118339815191525416916040519163022f65e760e31b835260048301526024820152602081606481600080968160448401525af1918215610c1a578092610be957505090565b9091506020823d602011610c12575b81610c0560209383610b05565b8101031261012057505190565b3d9150610bf8565b604051903d90823e3d90fd5b9050610c30610d80565b90610b94565b50610c3f610d80565b610b8d565b8015610cda575b600080516020610f11833981519152546040516367a68c5560e11b8152600481019290925260036024830152600160f81b6044830152602090829060649082906000906001600160a01b03165af19081156107a957600091610cab575090565b90506020813d602011610cd2575b81610cc660209383610b05565b8101031261079c575190565b3d9150610cb9565b5060006020610ce7610d80565b915050610c4b565b610cfa828254610e75565b60019181610d0d82600186950154610e75565b610d1b826002830154610e75565b600390610d2c836003830154610e75565b610d3a836004830154610e75565b6000935b610d4a575b5050505050565b600581018054851015610d7a5784610d7385610d6889988995610b27565b905490871b1c610e75565b0193610d3e565b50610d43565b60018060a01b03600080516020610f118339815191525416604051639cd07acb60e01b815260208160448160008096816004840152600260248401525af1918215610c1a578092610be957505090565b600080516020610f1183398151915254604051639cd07acb60e01b8152600160048201526002602482015290602090829060449082906000906001600160a01b03165af19081156107a957600091610cab575090565b60018060a01b03600080516020610f118339815191525416604051639cd07acb60e01b8152602081604481600080968160048401528160248401525af1918215610c1a578092610be957505090565b908115610e9157610e8f91610e8a3082610e95565b610e95565b565b5050565b7f9e7b61f58c47dc699ac88507c4f5bb9f121c03808c5676a8078fe583e4649700546001600160a01b031691823b1561079c57604051635ca4b5b160e11b815260048101929092526001600160a01b03166024820152906000908290604490829084905af180156107a957610f075750565b610e8f90610adb56fe9e7b61f58c47dc699ac88507c4f5bb9f121c03808c5676a8078fe583e4649701a2646970667358221220df3bb3751d9b9870f0c64902a90bcf28d14dd13649036eeb425dfe64b0bd28e764736f6c63430008180033",
  "linkReferences": {},
  "deployedLinkReferences": {}
}